:100000000C945D040C9485040C9485040C94850474
:100010000C9485040C9485040C9485040C9485043C
:100020000C9485040C9485040C9488160C94F71693
:100030000C9485040C9485040C9485040C9485041C
:100040000C9485040C9485040C9485040C9485040C
:100050000C9485040C9485040C9485040C94291943
:100060000C9485040C9485040C9485040C948504EC
:100070000C9485040C9485040C9485040C948504DC
:100080000C9473190C9485040C9485040C948504C9
:100090000C9485040C9485040C9485040C948504BC
:1000A0000C9485040C9485040C94850400000000D5
:1000B000003E5B4F5B3E3E6B4F6B3E1C3E7C3E1CEE
:1000C000183C7E3C181C577D571C1C5E7F5E1C0034
:1000D000183C1800FFE7C3E7FF0018241800FFE7EB
:1000E000DBE7FF30483A060E2629792926407F05AE
:1000F0000507407F05253F5A3CE73C5A7F3E1C1CC4
:1001000008081C1C3E7F14227F22145F5F005F5F83
:1001100006097F017F006689956A6060606060946F
:10012000A2FFA29408047E040810207E2010080874
:100130002A1C08081C2A08081E101010100C1E0C7F
:100140001E0C30383E3830060E3E0E060000000011
:100150000000005F00000007000700147F147F14F8
:10016000242A7F2A1223130864623649562050003D
:1001700008070300001C2241000041221C002A1C29
:100180007F1C2A08083E0808008070300008080814
:100190000808000060600020100804023E51494534
:1001A0003E00427F400072494949462141494D3352
:1001B0001814127F1027454545393C4A49493141B9
:1001C000211109073649494936464949291E000087
:1001D00014000000403400000008142241141414DC
:1001E0001414004122140802015909063E415D59C8
:1001F0004E7C1211127C7F494949363E41414122D1
:100200007F4141413E7F494949417F090909013EFA
:10021000414151737F0808087F00417F4100204021
:10022000413F017F081422417F404040407F021C33
:10023000027F7F0408107F3E4141413E7F0909094A
:10024000063E4151215E7F09192946264949493216
:1002500003017F01033F4040403F1F2040201F3FDC
:100260004038403F63140814630304780403615961
:10027000494D43007F4141410204081020004141A3
:10028000417F04020102044040404040000307084F
:100290000020545478407F2844443838444444284B
:1002A000384444287F385454541800087E090218F2
:1002B000A4A49C787F0804047800447D400020407A
:1002C000403D007F1028440000417F40007C0478BE
:1002D00004787C080404783844444438FC18242406
:1002E0001818242418FC7C08040408485454542486
:1002F00004043F44243C4040207C1C2040201C3C03
:100300004030403C44281028444C9090907C4464F9
:10031000544C44000836410000007700000041368C
:10032000080002010204023C2623263C1EA1A16112
:10033000123A4040207A3854545559215555794144
:100340002154547841215554784020545579400C1B
:100350001E527212395555555939545454593955FC
:100360005454580000457C410002457D420001453F
:100370007C40F0292429F0F0282528F07C545545AC
:10038000002054547C547C0A097F4932494949323F
:100390003248484832324A4848303A4141217A3A54
:1003A00042402078009DA0A07D39444444393D401E
:1003B00040403D3C24FF2424487E4943662B2FFCCB
:1003C0002F2BFF0929F620C0887E09032054547979
:1003D000410000447D413048484A32384040227A4A
:1003E000007A0A0A727D0D19317D2629292F2826C7
:1003F0002929292630484D402038080808080808CF
:100400000808382F10C8ACBA2F102834FA00007B27
:10041000000008142A142222142A1408950022002D
:1004200095AA005500AAAA55AA55AA000000FF00E7
:10043000101010FF00141414FF001010FF00FF1024
:1004400010F010F0141414FC001414F700FF000056
:10045000FF00FF1414F404FC141417101F10101FD5
:10046000101F1414141F00101010F0000000001FC3
:10047000101010101F10101010F010000000FF10CE
:100480001010101010101010FF10000000FF1400CA
:1004900000FF00FF00001F10170000FC04F41414FC
:1004A0001710171414F404F40000FF00F7141414C8
:1004B00014141414F700F7141414171410101F1048
:1004C0001F141414F4141010F010F000001F101F6B
:1004D0000000001F14000000FC140000F010F010D9
:1004E00010FF10FF141414FF141010101F00000050
:1004F00000F010FFFFFFFFFFF0F0F0F0F0FFFFFF54
:100500000000000000FFFF0F0F0F0F0F38444438AA
:10051000447C2A2A3E147E02020606027E027E02E5
:1005200063554941633844443C04407E201E200604
:10053000027E020299A5E7A5991C2A492A1C4C7241
:1005400001724C304A4D4D303048784830BC625AC8
:10055000463D3E494949007E0101017E2A2A2A2A58
:100560002A44445F444440514A444040444A514034
:100570000000FF0103E080FF000008086B6B0836F5
:1005800012362436060F090F060000181800000066
:100590001010003040FF0101001F01011E00191D55
:1005A0001712003C3C3C3C0000000000080B00021D
:1005B00002020000090400000102020000052400FC
:1005C000100105240101010424020605240600018E
:1005D0000705810310004009040100020A00000021
:1005E00007050202400000070583024000000403E3
:1005F000090412010002EF0201404123368000018C
:100600000102030141726475696E6F204C4C430016
:1006100041726475626F7900F0F89C8E8783878ED3
:100620009CF8F00000FEFF0303030303070EFCF831
:100630000000FEFF0303030303070EFCF80000FFA6
:10064000FF00000000000000FFFF0000FEFF8383AA
:10065000838383C7EE7C380000F8FC0E0703030396
:10066000070EFCF800003F7FE0C08080C0E07F3FC5
:10067000FFFF01010101010101FFFF0000FFFF0C6D
:100680000C0C0C1C3E77E3C100007FFFC0C0C0C053
:10069000C0E0703F1F00001F3F70E0C0C0C0E070AE
:1006A0003F1F00007FFFC1C1C1C1C1E3773E1C00F5
:1006B000001F3F70E0C0C0C0E0703F1F000000009E
:1006C0000001FFFF01000000D5F08D14A1C881CF0B
:1006D000D9F1AF2000484947482053434F524500C5
:1006E000040A0906000000000609090600000000CF
:1006F000020D09060000000060A090F0000000005C
:100700001826418182422418182444424222221C85
:100710003C4283818182621C265A81424181413E52
:100720000000C0300C0202020204040408F00000C1
:1007300000000003041820202020101008080700E3
:100740000080601008040202020202040830C000A7
:100750000001020C1020404040402010080403001B
:100760000000C0300C0404020204040C30C000007D
:10077000000F1020202020404040201008040300DB
:1007800000C0404040808060180402040830C0006F
:1007900000030C10202040404040242A1201010098
:1007A00003030201FFFEFDFEFF01020303FDFEFF46
:1007B0000102030201FFFEFD03030303030303FD24
:1007C000FDFDFDFDFDFDFDFDFDFD03030303030335
:1007D00000020303030404040303030200FEFDFDFF
:1007E000FDFCFCFCFDFDFDFEFCFCFDFDFDFE000234
:1007F0000303030404040303030200FEFDFDFDFCE8
:10080000FDFDFDFDFDFDFDFDFDFDFDFDFD03030306
:100810000303030303030303030201FFFEFDFD03C0
:100820000201FFFEFDFEFF010203FDFDFEFF0102CE
:1008300000EC05ED0AEF0EF211F613FB14001305A0
:10084000110A0E0E0A1105130014FB13F611F20E15
:10085000EF0AED05EC00EDFBEFF6F2F2F6EFFBED43
:1008600045524541534520444F4E4500574F524B4A
:10087000494E472E2E2E005354415254203D2052B3
:1008800049474854202B20420045524541534520BA
:100890004849474853434F52453F005041555345FF
:1008A000002000200018346E2E2E6E341841535450
:1008B00045524F4944530000ED1911241FBECFEF9C
:1008C000DAE0DEBFCDBF11E0A0E0B1E0E2E7FBE59A
:1008D00002C005900D92A434B107D9F728E0A4E432
:1008E000B1E001C01D92A335B207E1F714E0CDE5F8
:1008F000D4E004C02197FE010E94B12DCC35D10770
:10090000C9F70E941A1A0C94B72D0C94000080911C
:10091000BB030895480F592F511D1416150684F571
:10092000803891056CF597FF02C090E080E0413877
:10093000510514F040E850E0481BFB01E770FF2729
:1009400021E001C0220FEA95EAF777FF02C0695F54
:100950007F4FFB0133E0F595E7953A95E1F7F69582
:10096000FE2FEE27F795E795E80FF91FE151FC4FB1
:10097000415030F08191DF011197822B8C93F8CF99
:1009800008954F925F926F927F928F929F92AF9253
:10099000BF92CF92DF92EF92FF920F931F93CF936C
:1009A000DF9330E0F901E80FF91F1E161F060CF067
:1009B0007CC0803891050CF078C0602E712CF3015A
:1009C000E60FF71F1E161F060CF06FC0603471058E
:1009D0000CF06BC0E62FE7705E2EE7E06E0E711C28
:1009E000E3E075946794EA95E1F7F3E07595679510
:1009F000FA95E1F7062E000C770BDB01B695BA2FBE
:100A0000AA27B795A795A80FB91FA151BC4FEA0116
:100A1000F12CE12C6701C60ED71E48E0C416D104A4
:100A20000CF043C0EFEFCE16DE06A4F18C0150E0CF
:100A300040E04D01E0E88E0E911C17FD21C0FA0147
:100A4000EC0FFD1FA490B12C052C02C0AA0CBB1CFE
:100A50000A94E2F7EFEFCE16DE06C1F1FD01E40FD6
:100A6000F51F40804A284082552051F0E7E0CE161D
:100A7000D10431F0F401E40FF51FA080BA28B08250
:100A80004F5F5F4F0F5F1F4F421753071CF4003833
:100A9000110599F64FEFE41AF40AA058BF4FC20FA0
:100AA000D31F6E147F0409F0B5CFDF91CF911F9152
:100AB0000F91FF90EF90DF90CF90BF90AF909F90FD
:100AC0008F907F906F905F904F9008955110D2CF8C
:100AD000D7CFEFEEF3E0A0E0B8E000800EBC8111CC
:100AE000012C1197A0FDFDCF0192B9F70DB4089527
:100AF0002FB7F89483E08093E9009091E800892F64
:100B0000807295FF04C09091F20080E4891B2FBF92
:100B10000895FC018091EE03882311F13FB7F8940A
:100B200082E08093E9002091F200822F90E0181675
:100B3000190614F481E090E0882339F0289844E6FF
:100B40004093ED034091F1004083222339F020913E
:100B5000F200211103C02BE62093E8003FBF089567
:100B60008FEF9FEF08958091E50381110DC082E022
:100B70008093E10384E08093E2031092E4031092F7
:100B8000E30381E08093E50381EE93E008954091D3
:100B9000660150916701209164013091650142170F
:100BA0005307B4F49091E8009570E1F39091E80058
:100BB00092FD19C08093F1008091660190916701C8
:100BC00001968F739927892B19F48EEF8093E80093
:100BD00080916601909167010196909367018093DF
:100BE000660181E0089580E00895DF92EF92FF9220
:100BF0000F931F93CF93DF93D82E8A01EB017B01D4
:100C0000E40EF51ECE15DF0559F0D7FE12C0FE0129
:100C100084910E94C70521968111F4CF0FEF1FEF39
:100C2000C801DF91CF911F910F91FF90EF90DF905E
:100C300008958881EECF0F931F93CF93DF931F9278
:100C4000CDB7DEB782E0898342E450E06CEA75E01C
:100C500080E80E94F5050E94B305DC0112960D9113
:100C60001C910115110589F0D801ED91FC910280CC
:100C7000F381E02DBE016F5F7F4FC801099597FD9D
:100C800004C0F80100851185ECCF89810F90DF91B8
:100C9000CF911F910F910895615030F02091F10094
:100CA000FC0120830196F8CF289884E68093ED0319
:100CB0000895AF92BF92CF92DF92EF92FF920F937F
:100CC0001F93CF93DF936C017B018B01040F151FE2
:100CD000EB015E01AE18BF08C017D10759F069914A
:100CE000D601ED91FC910190F081E02DC6010995AE
:100CF000892B79F7C501DF91CF911F910F91FF905B
:100D0000EF90DF90CF90BF90AF900895CF93DF9397
:100D10001F92CDB7DEB76983DC01ED91FC910280B3
:100D2000F381E02D41E050E0BE016F5F7F4F0995F8
:100D30000F90DF91CF91089583E08093E900809137
:100D4000F200882319F08AE38093E80008950E9456
:100D5000780590E00895CF93DF931F92CDB7DEB76B
:100D6000FC018485958597FD08C02FEF3FEF3587FF
:100D700024870F90DF91CF910895CE0101960E94B4
:100D80008905019719F4898190E0F3CF8FEF9FEFE8
:100D9000F0CF0F931F93CF93DF931F92CDB7DEB7A2
:100DA0008C01FC018485958597FF0BC0CE010196CF
:100DB0000E948905019771F4898190E0F801958777
:100DC0008487F801848595850F90DF91CF911F91DD
:100DD0000F9108958FEF9FEFF1CFFC0184859585EA
:100DE00097FD0BC09FB7F89482E08093E900809153
:100DF000F2009FBF90E0019608959FB7F89482E0BB
:100E00008093E9008091F2009FBF90E00895FC017B
:100E10000E949E07319728F068517C4F8F4F9F4F5B
:100E2000F9CFAB01FC010E949E07641775078E077E
:100E30009F07C8F308958F929F92AF92BF92CF926F
:100E4000DF92EF92FF920F931F93CF93DF936C018A
:100E50007B018A0180910B01882309F45AC080919B
:100E6000EE03882309F455C080916A0180FF05C014
:100E70008091E00082608093E000E801B12C8AEF6D
:100E8000A82E93E0892E2AE3922E209711F4BB20FE
:100E9000C9F10E947805811108C0AA94AA20C9F15D
:100EA00081E090E00E940707F0CF8C171D0611F03B
:100EB0000CF08C2F9FB7F8948092E9002091E80005
:100EC00025FD02C09FBFE1CF282F30E0C21BD30B0E
:100ED000F701815020F041914093F100FACFE20EEA
:100EE000F31EBB2021F09092E800B12CEBCF809153
:100EF000E80085FDE7CF9092E800BB24B3942097EB
:100F000009F3F3CF5D9884E680936901101611060A
:100F10003CF081E090E0F6019383828310E000E0F2
:100F2000C801DF91CF911F910F91FF90EF90DF905B
:100F3000CF90BF90AF909F908F900895A0E6B1E0C2
:100F40002FB7F8947D918D919C9166B52FBFA89B8A
:100F500005C06F3F18F47F5F8F4F9F4F22E0660FF1
:100F6000771F881F991F2A95D1F70895AB01FC01BF
:100F70000E949E0741505109E109F10928F068518A
:100F80007C4F8F4F9F4FF6CFAB01FC010E949E0715
:100F9000641775078E079F07C8F3089520915301C2
:100FA000E0915101F0915201CF01029690935201CC
:100FB00080935101222319F08591949108958081A5
:100FC00091810895CF92DF92EF92FF92CF93DF93BA
:100FD0000E94CE07811520E8920791F4809171005C
:100FE0008D7F8093710010929100469847981092DF
:100FF0005001DF91CF91FF90EF90DF90CF90089557
:1010000021E020935001813020E8920751F4809133
:101010004E0190914F0190935201809351010E9493
:10102000CE0797FD05C020914D01222309F454C03D
:1010300020914C01211150C021E020935401EC017A
:10104000DF77209709F04BC081E0809355014698E7
:101050003FE9C32E3FE0D32EE12CF12CCAEFD0E0C4
:10106000E0914D08F0914E080995811103C081E08F
:101070008093550180915401882329F08091550176
:10108000882309F43FC047980E94CE070097F1F1EA
:101090009C01DE010E947A2DDC01CB0129E0B5958F
:1010A000A795979587952A95D1F7109290002AE0F9
:1010B00020939100D0929900C0929800809356019D
:1010C00090935701A0935801B093590180917100FA
:1010D0008260809371008DCF10925401B0CF9E0139
:1010E00050E040E060E472E48FE090E00E94262D42
:1010F00069017A0181E0C81AD108E108F10810926B
:101100005501AECF4699BFCF479ABECF8FEF9FEF25
:10111000DC01CBCF9C01E1E7F0E090819D7F9083E3
:1011200010925301EFE3F8E0F0935201E093510184
:10113000F0934F01E0934E013183208373836283E8
:1011400080E090E8958384830C94E20790E00C940F
:1011500007078FB18095807F669B88601C9B8460A9
:1011600008951092BB033E983F9808953E9A3F9A87
:1011700081E08093BB03089590E1282F81E061FD19
:1011800084E060FD880F62FD8295687F969FD001A4
:101190001124A20FA151BC4F0C90082A40FF082631
:1011A0000C9208958038910528F46034710510F48C
:1011B0000C94BC0808952F923F924F925F926F92C9
:1011C0007F928F929F92AF92BF92CF92DF92EF92D7
:1011D000FF920F931F93CF93DF93EC018B017A0162
:1011E0006901C61AD70AD7FE03C0D194C194D108A9
:1011F00047018C1A9D0A97FE03C09194819491082F
:101200008C149D0454F49E2D8F2D7901292F382F95
:101210009C2F8D2FE801092F182FEC16FD0654F492
:10122000902F812F8901292F382F9C2F8D2FE70197
:10123000E92EF82E17012C1A3D0A2901401A510AED
:1012400057FE03C0519441945108310137FE03C049
:101250008FEF681A780A759467948FEF0217130757
:101260000CF481E0A82E880FBB08EC16FD06A4F054
:1012700041E0BE01C8018C149D0414F0B801CE01F8
:101280000E94D2086418750877FE04C00A0D1B1D61
:10129000620C731C2196E9CFDF91CF911F910F91C2
:1012A000FF90EF90DF90CF90BF90AF909F908F9086
:1012B0007F906F905F904F903F902F9008952F9266
:1012C0003F924F925F926F927F928F929F92AF92D6
:1012D000BF92CF92DF92EF92FF920F931F93CF9323
:1012E000DF9300D000D000D01F92CDB7DEB76D30B5
:1012F000D9F030900D014090BE035090BF03832D74
:1013000090E09F838E836A3051F51092C103109252
:10131000C00323E0880F991F2A95E1F7480E591E54
:101320005092BF034092BE0381E090E027960FB633
:10133000F894DEBF0FBECDBFDF91CF911F910F910B
:10134000FF90EF90DF90CF90BF90AF909F908F90E5
:101350007F906F905F904F903F902F900895A09056
:10136000C003B090C10395E0699FB0011124FB0157
:10137000E455FF4F3F016501212CF5E02F1629F1BF
:10138000C3010196F301F491F9833C01420128E085
:101390002A83898181708D8310E000E00315D0F4E9
:1013A000F801EC0DFD1DFC83EB83F12CE12CE31423
:1013B00070F4B4016E0D7F1D4D818B819C810E9464
:1013C000D208FFEFEF1AFF0AF2CF1982DFCF0F5FCB
:1013D0001F4FE4CF2981269529838A8181508A83F2
:1013E000EE81FF818E0E9F1E8111D3CF2394CE0EEE
:1013F000DF1EF6E02F12C1CFC501329C800D911D7A
:1014000011249093C1038093C0038ECF682F8FE483
:1014100098E00C945F090F931F93CF93DF938C0197
:10142000D0E0C0E0F801EC0FFD1F6491662341F0AD
:101430008FE498E00E945F09892B11F02196F2CF8A
:10144000CE01DF91CF911F910F91089590916C0182
:10145000982329F490916D01982381E009F480E0AC
:101460000895CF93C82F0E94A908982F9C2381E04C
:101470009C1380E0CF9108952F923F925F926F92DC
:101480007F928F929F92AF92BF92CF92DF92EF9214
:10149000FF920F931F93CF93DF9300D000D000D023
:1014A000CDB7DEB77C018B01522E242F30E03E8376
:1014B0002D8381E090E05C01A21AB30AC9019195E5
:1014C000819591099C01220F331F3A8329836D81F5
:1014D0007E81600F711F452DC7010E94D208B8019F
:1014E0008D819E81681B790B452DC7010E94D20812
:1014F000452DB8018D819E818E0D9F1D0E94D208C1
:10150000452DB801C7012D813E81821B930B0E949E
:10151000D208D12CC12C81E090E09C838B83B7FC56
:101520000DC02D813E81215031093E832D8389815B
:101530009A8102969A838983A80EB91E9FEFC91AD1
:10154000D90A2B813C812E5F3F4F3C832B83A20E17
:10155000B31E36016E0C7F1C452D8D809E80800E43
:10156000911EB401C3010E94D20817012C183D0836
:10157000452DB401C1010E94D208452D48018D813D
:101580009E81881A990AB401C3010E94D208452D90
:10159000B401C1010E94D2084601800E911E452D62
:1015A000B4016D807E806E0C7F1CC3010E94D20846
:1015B000452DB40117012D813E81221A330AC10144
:1015C0000E94D20848018C189D08452DB401C30122
:1015D0000E94D208452DB401C1010E94D2088D811C
:1015E0009E81C816D9060CF49ACF26960FB6F894A9
:1015F000DEBF0FBECDBFDF91CF911F910F91FF9046
:10160000EF90DF90CF90BF90AF909F908F907F90A2
:101610006F905F903F902F90089580914A018823AA
:1016200021F010924A0180E0089520915C01909190
:101630004B01322F391B932F30910C01931740F43B
:101640009F5F931790F491E093BF889513BE089520
:1016500081E080934A0120934B01ECEBF3E0808121
:10166000918101968083918381E008951092C70350
:10167000EDECF3E0178216821582148288E790E081
:101680009093CC038093CB031092CA0310929802DC
:1016900010922903109272030895E7EDF3E080E0C1
:1016A00099E19183808388E893E1938382830E9408
:1016B000360B1092E0031092C9031092C8030895EC
:1016C00080E19FEF9093CC038093CB0362E370E0C3
:1016D00086E990E00E948A088091D6038150809329
:1016E000D603EDECF3E080E099E19183808380E81C
:1016F0009CE0938382831582148217821682089558
:10170000089590E080E008958F929F92AF92BF92EB
:101710000F931F93CF93DF93CDB7DEB7A1970FB68B
:10172000F894DEBF0FBECDBF19A2423008F44AE0E4
:101730008E010F5D1F4F842E912CB12CA12CA50181
:1017400094010E94582DE62FB901CA01EA3044F5F0
:10175000E05DD801EE938D01232B242B252B79F707
:1017600090E080E0109769F0FD0101900020E9F71A
:101770003197AF014A1B5B0BBD018FE498E00E94DB
:101780005906A1960FB6F894DEBF0FBECDBFDF910C
:10179000CF911F910F91BF90AF909F908F90089520
:1017A000E95CD7CFCF92DF92EF92FF92CF93DF9396
:1017B0006C01990FEE08FF08F7FE17C08DE20E943A
:1017C000060AEC0166277727CB016C197D098E0983
:1017D0009F094AE00E94840B8C0F9D1FDF91CF91DF
:1017E000FF90EF90DF90CF9008954AE0C701B601D7
:1017F000DF91CF91FF90EF90DF90CF900C94840B0E
:10180000CF92DF92EF92FF926B017C01C114D10461
:10181000E104F10441F00E94B82CA70196010E9456
:10182000262D6B017C01C701B601FF90EF90DF9080
:10183000CF900895AF92BF92CF92DF92EF92FF9236
:101840000F931F93CF93DF938091CB039091CC03A1
:1018500097FF02C00C94E01500E019E0C02FD0E023
:10186000A091CD03B091CE036091D503062E000C5C
:10187000770B9B012056384F80917203082E000C85
:10188000990BC817D9070CF09CC21C9FF0011D9F33
:10189000F00D1124E65DFC4F808191818A1B9B0B2A
:1018A000F9014491FC01E40FF11D47FDFA95E09028
:1018B000CF03F090D003AB01485E5F4F1E161F06AA
:1018C0000CF0D2C0F901D490FC01ED0DF11DD7FC54
:1018D000FA95E43FF1400CF4D2C0F901D490FC0138
:1018E000ED0DF11DD7FCFA951E161F060CF0C1C1B7
:1018F000F9012491DC01A20FB11D27FDBA951C9FAF
:10190000F0011D9FF00D1124E65DFC4F2281338113
:101910002E193F09FA01E056F84F44915901A40EDF
:10192000B11C47FDBA941A141B040CF0ADC1E4912C
:10193000A9014E0F511DE7FD5A95A40FB51FAC3BF1
:10194000B2400CF4BDC0AB014053584FFA01F490C3
:10195000FC01EF0DF11DF7FCFA95DB01A85BBF4F11
:101960001E161F060CF09AC1FA01D4905C01AD0C52
:10197000B11CD7FCBA94E4EFAE16E1E0BE060CF45D
:101980009AC1FA01D490FC01ED0DF11DD7FCFA9536
:101990001E161F060CF0B5C1FA0144915C01A40E9D
:1019A000B11C47FDBA94A501FD01E056F84FA49182
:1019B0006901CA0ED11CA7FDDA94D6011A161B06BE
:1019C0000CF0ABC1E4917901EE0EF11CE7FDFA9445
:1019D000F7014E0F5F1F4C3B52400CF471C0AB013E
:1019E0004050584FFA01F490FC01EF0DF11DF7FC47
:1019F000FA9568587F4F1E161F060CF099C1FA0120
:101A0000F490FC01EF0DF11DF7FCFA95E43FF14075
:101A10000CF499C1FA01F490FC01EF0DF11DF7FCF3
:101A2000FA951E161F060CF0B5C1FA014491840FF9
:101A3000911D47FD9A95FB01E056F84F44915901DD
:101A4000A40EB11C47FDBA941A141B040CF0ACC1CF
:101A5000E4912E0F311DE7FD3A95820F931F8C3BC9
:101A6000924074F10F5FFACEF901D490FC01ED0DB4
:101A7000F11DD7FCFA95ED30FE4F0CF42ECF1C9FD4
:101A8000F0011D9FF00D1124E65DFC4FA281B38192
:101A9000AE19BF09FA01E056F84FD4905D01AD0CC4
:101AA000B11CD7FCBA941A141B040CF0D8C0E491F2
:101AB000AE0FB11DE7FDBA95A43FB1400CF00DCFBC
:101AC00062E370E086E990E00E948A080E94600B61
:101AD000209129032103F0011124E756FD4F1C9F9B
:101AE000C0011D9F900D1124EC01C65DDC4F888163
:101AF00099812C813D81820F931F918380838A81FC
:101B00009B812E813F81820F931F9383828364E6A2
:101B100070E080E090E00E94000C209129032103F6
:101B2000F0011124E756FD4F6253710981099109B3
:101B30007583648364E670E080E090E00E94000CAE
:101B4000209129032103F0011124E756FD4F625330
:101B50007109810991097783668364E070E080E010
:101B600090E00E94000C209129032103F001112430
:101B7000E756FD4F60872F5F209329032103F00173
:101B80001124E756FD4F888199812C813D81820F78
:101B9000931F918380838A819B812E813F81820F55
:101BA000931F9383828364E670E080E090E00E945C
:101BB000000C209129032103F0011124E756FD4F69
:101BC00062537109810991097583648364E670E049
:101BD00080E090E00E94000C209129032103F00195
:101BE0001124E756FD4F62537109810991097783EA
:101BF000668364E070E080E090E00E94000C209139
:101C000029032103F0011124E756FD4F60872F5F60
:101C100020932903302F832F90E020917203422FCD
:101C2000022E000C550B41505109841795070CF0FA
:101C3000C4C0189FD001199FB00D1124A65DBC4FE0
:101C40000196189FF001199FF00D1124E65DFC4FDD
:101C5000812F01900D928A95E1F73F5FDCCFE491EF
:101C6000AE0FB11DE7FDBA95AD30BE4F0CF435CEC9
:101C700027CFF9012491DC01A20FB11D27FDBA95F0
:101C8000B195A195B1093BCEE491A9014E0F511D2B
:101C9000E7FD5A955195419551094FCEFA01D490DF
:101CA0005C01AD0CB11CD7FCBA94EDE0AE16EEEFC2
:101CB000BE060CF466CEFD01E056F84FF4905901D3
:101CC000AF0CB11CF7FCBA941A141B046CF4E49129
:101CD0006901CE0ED11CE7FDDA94E4EFCE16E1E007
:101CE000DE060CF04ECEECCEE4916901CE0ED11C96
:101CF000E7FDDA94FDE0CF16FEEFDF060CF441CEEF
:101D0000DFCEFA0144915C01A40EB11C47FDBA94E8
:101D1000A50151954195510947CEE491D901AE0FE6
:101D2000B11DE7FDBA95FD01F195E195F10951CE9F
:101D3000FA01F490FC01EF0DF11DF7FCFA95ED307E
:101D4000FE4F0CF467CEFB01E056F84FA491590109
:101D5000AA0EB11CA7FDBA94D5011A161B066CF485
:101D6000E4916901CE0ED11CE7FDDA94A4EFCA1606
:101D7000A1E0DA060CF04ECEA3CEE4915901AE0EEE
:101D8000B11CE7FDBA94ADE0AA16AEEFBA060CF4AA
:101D900041CE96CEFA014491840F911D47FD9A954C
:101DA00091958195910947CEE4912E0F311DE7FD64
:101DB0003A9531952195310950CE215020937203E7
:101DC00051CE00E019E0C02FD0E02091CD0330913A
:101DD000CE036091D503062E000C770BAB01405665
:101DE000584F6A0180912903082E000C990BC817DF
:101DF000D9070CF09BC21C9FF0011D9FF00D112410
:101E0000E756FD4F80819181821B930BFA0124914B
:101E10005C01A20EB11C27FDBA94E090CF03F090B4
:101E2000D003DB0158961A141B040CF0D2C0249185
:101E30005C01A20EB11C27FDBA9440E9A41641E052
:101E4000B4060CF4D2C0F60124915C01A20EB11CC0
:101E500027FDBA941A141B040CF0C1C1C490AC0144
:101E60004C0D511DC7FC5A951C9FF0011D9FF00D94
:101E70001124E756FD4F228133812E193F09FD01C0
:101E8000E056F84FA4915901AA0EB11CA7FDBA94CF
:101E9000D5011A161B060CF0ACC1E4916901CE0EF7
:101EA000D11CE7FDDA94F6014E0F5F1F4835524012
:101EB0000CF4BCC0DB01A053B84FFD014491FC0100
:101EC000E40FF11D47FDFA95AB01485B5F4F1E160D
:101ED0001F060CF099C1FD01D4905C01AD0CB11C42
:101EE000D7FCBA94E0E9AE16E1E0BE060CF499C165
:101EF000FD01D490FC01ED0DF11DD7FCFA951E16E5
:101F00001F060CF0B4C1FD01A4915C01AA0EB11C26
:101F1000A7FDBA94D501FA01E056F84F4491690142
:101F2000C40ED11C47FDDA941C141D040CF0ABC187
:101F3000E491A9014E0F511DE7FD5A95A40FB51F5D
:101F4000A835B2400CF472C0AB014050584FFA01B2
:101F5000F490FC01EF0DF11DF7FCFA9568587F4FE6
:101F60001E161F060CF099C1FA01F490FC01EF0D4A
:101F7000F11DF7FCFA95E039F1400CF499C1FA0132
:101F8000F490FC01EF0DF11DF7FCFA951E161F06EB
:101F90000CF0B5C1FA014491840F911D47FD9A954B
:101FA000FB01E056F84F44915901A40EB11C47FDC6
:101FB000BA941A141B040CF0ACC1E4912E0F311D1D
:101FC000E7FD3A95820F931F883592407CF10F5FB1
:101FD000FACE24915C01A20EB11C27FDBA9441E710
:101FE000A4164EEFB4060CF42ECF1C9FF0011D9FDB
:101FF000F00D1124E756FD4F228133812E193F0940
:10200000FD01E056F84F44915901A40EB11C47FD63
:10201000BA941A141B040CF0D8C0E4912E0F311D91
:10202000E7FD3A95203931400CF00DCF62E370E0C6
:1020300086E990E00E948A080E94600B2091980235
:102040002103F0011124E858FE4F1C9FC0011D9F81
:10205000900D1124EC01C756DD4F888199812C81A8
:102060003D81820F931F918380838A819B812E8182
:102070003F81820F931F9383828364E670E080E048
:1020800090E00E94000C209198022103F00111249D
:10209000E858FE4F62537109810991097583648381
:1020A00064E670E080E090E00E94000C20919802CD
:1020B0002103F0011124E858FE4F62537109810990
:1020C00091097783668364E070E080E090E00E948D
:1020D000000C209198022103F0011124E858FE4FD2
:1020E00060872F5F209398022103F0011124E858A4
:1020F000FE4F888199812C813D81820F931F9183AE
:1021000080838A819B812E813F81820F931F9383DD
:10211000828364E670E080E090E00E94000C2091F1
:1021200098022103F0011124E858FE4F625371090F
:10213000810991097583648364E670E080E090E032
:102140000E94000C209198022103F0011124E8580C
:10215000FE4F62537109810991097783668364E0B8
:1021600070E080E090E00E94000C20919802210332
:10217000F0011124E858FE4F60872F5F20939802EA
:10218000302F832F90E020912903422F022E000C44
:10219000550B41505109841795070CF0C3C0189F87
:1021A000D001199FB00D1124A756BD4F0196189F5D
:1021B000F001199FF00D1124E756FD4F812F01907A
:1021C0000D928A95E1F73F5FDCCFE4912E0F311D30
:1021D000E7FD3A9521373E4F0CF435CE27CFC4901A
:1021E000AC014C0D511DC7FC5A95519541955109B3
:1021F0003BCEE4917901EE0EF11CE7FDFA94F70174
:10220000F195E195F10950CEFD01D4905C01AD0C42
:10221000B11CD7FCBA94E1E7AE16EEEFBE060CF4A3
:1022200067CEFA01E056F84FF4905901AF0CB11C9B
:10223000F7FCBA941A141B046CF4E4916901CE0EF5
:10224000D11CE7FDDA94E0E9CE16E1E0DE060CF001
:102250004FCEECCEE4916901CE0ED11CE7FDDA94AD
:10226000F1E7CF16FEEFDF060CF442CEDFCEFD0124
:10227000A4915C01AA0EB11CA7FDBA94D501B19539
:10228000A195B10948CEE491A9014E0F511DE7FD7A
:102290005A9551954195510951CEFA01F490FC019E
:1022A000EF0DF11DF7FCFA95E137FE4F0CF467CE08
:1022B000FB01E056F84FA4915901AA0EB11CA7FDED
:1022C000BA94D5011A161B066CF4E4916901CE0E7E
:1022D000D11CE7FDDA94A0E9CA16A1E0DA060CF0F9
:1022E0004ECEA4CEE4915901AE0EB11CE7FDBA94D6
:1022F000A1E7AA16AEEFBA060CF441CE97CEFA01CA
:102300004491840F911D47FD9A959195819591096E
:1023100047CEE4912E0F311DE7FD3A953195219579
:10232000310950CE21502093290351CED0E0C9E08D
:102330006D2F70E04091CD035091CE038091D50375
:10234000082E000C990BFC01E056F84F20919802E2
:10235000022E000C330B621773070CF02BC1C69FC3
:10236000D001C79FB00D1124A858BE4F2D913C91AC
:10237000241B350B4491D901A40FB11D47FDBA951B
:102380001A161B060CF039C0E491A9014E0F511D1D
:10239000E7FD5A95403951400CF439C0FC01E05337
:1023A000F84F4491D901A40FB11D47FDBA951A16F3
:1023B0001B060CF088C0E491A9014E0F511DE7FDEA
:1023C0005A95403951400CF488C0FC01E050F84F58
:1023D0004491D901A40FB11D47FDBA951A161B06E9
:1023E0000CF0ABC0E4912E0F311DE7FD3A9520397A
:1023F00031400CF4ABC0DF5F9BCFE491A9014E0FDD
:10240000511DE7FD5A9541375E4F0CF4C7CFC69F6B
:10241000F001C79FF00D1124E858FE4F428153810F
:10242000E091CF03F091D0034E1B5F0BFC01E85409
:10243000F84FA4915A01AA0EB11CA7FDBA94D50178
:102440001A161B06B4F5E4914E0F511DE7FD5A957F
:10245000403951400CF0A2CF68EC70E080E090E091
:102460000E94B6070E94600B3D2F832F90E02091C1
:102470009802422F022E000C550B4150510984172F
:1024800095070CF093C0C89FD001C99FB00D1124CF
:10249000A858BE4F0196C89FF001C99FF00D1124A6
:1024A000E858FE4F8C2F01900D928A95E1F73F5F1F
:1024B000DCCFE4914E0F511DE7FD5A9541375E4F39
:1024C0000CF46CCFC9CFE491A9014E0F511DE7FD6B
:1024D0005A9541375E4F0CF478CFC69FF001C79FE5
:1024E000F00D1124E858FE4F42815381E091CF0353
:1024F000F091D0034E1B5F0BFC01E851F84FA49103
:102500005A01AA0EB11CA7FDBA94D5011A161B06D2
:1025100054F4E4914E0F511DE7FD5A954039514056
:102520000CF053CF99CFE4914E0F511DE7FD5A9512
:1025300041375E4F0CF449CF8FCFE4912E0F311D00
:10254000E7FD3A9521373E4F0CF455CFC69FF00179
:10255000C79FF00D1124E858FE4F2281338140912E
:10256000CF035091D003241B350BFC01E85EF74FDD
:1025700084915901A80EB11C87FDBA94C5011816A3
:10258000190654F4E4912E0F311DE7FD3A952039D8
:1025900031400CF030CF60CFE4912E0F311DE7FDBC
:1025A0003A9521373E4F0CF426CF56CF2150209339
:1025B000980221CF20916E0130916F01241B350BC1
:1025C0004491B901640F711D47FD7A95AB0160918B
:1025D000CF037091D003141615060CF04DC1E49191
:1025E000A9014E0F511DE7FD5A95403951400CF499
:1025F0004DC1FC01E053F84F44915901A40EB11CA8
:1026000047FDBA941A141B040CF07FC1E491A90190
:102610004E0F511DE7FD5A95403951400CF47FC1D2
:10262000FC01E050F84F44915901A40EB11C47FD44
:10263000BA941A141B040CF098C1E4912E0F311DAA
:10264000E7FD3A95203931400CF498C18091D703C9
:102650009091D8032091CD033091CE03821B930B30
:102660004091D503042E000C550BEA01C056D84FFB
:10267000FE012491FC01E20FF11D27FDFA95A091C6
:10268000CF03B091D0032091D9033091DA03BA017E
:10269000685E7F4F1E161F060CF097C1FE01F49076
:1026A000FC01EF0DF11DF7FCFA95E43FF1400CF44D
:1026B00097C1FE01F490FC01EF0DF11DF7FCFA95B6
:1026C0001E161F060CF0DDC1FE01C4915C01AC0EAC
:1026D000B11CC7FDBA94E5012A1B3B0BFB01E05678
:1026E000F84F64916901C60ED11C67FDDA941C1481
:1026F0001D040CF0D2C1E491B9016E0F711DE7FD0C
:102700007A95C60FD71FCC3BD2400CF481C1BA01D9
:102710006053784FFB01C491FC01EC0FF11DC7FD24
:10272000FA95DA01A85BBF4F1E161F060CF0BFC159
:10273000FB011491FC01E10FF11D17FDFA95E43F37
:10274000F1400CF4BFC1FB011491FC01E10FF11D3C
:1027500017FDFA951E161F060CF0DAC1FB016491F5
:10276000EC01C60FD11D67FDDA95FD01E056F84F6B
:1027700064915901A60EB11C67FDBA941A141B048A
:102780000CF0D1C1E491B9016E0F711DE7FD7A958E
:102790006C0F7D1F6C3B72400CF43AC1BA01605063
:1027A000784FFB01C491FC01EC0FF11DC7FDFA95B8
:1027B00048585F4F1E161F060CF0BFC1FB01C491A5
:1027C000FC01EC0FF11DC7FDFA95E43FF1400CF45C
:1027D000BFC1FB01C491FC01EC0FF11DC7FDFA95CF
:1027E0001E161F060CF0D9C1FB016491860F911DC6
:1027F00067FD9A95FA01E056F84F44915901A40EED
:10280000B11C47FDBA941A141B040CF0D0C1E4911A
:102810002E0F311DE7FD3A95820F931F8C3B92409E
:102820000CF4F6C08091720381111BC080912903C2
:10283000811117C080919802811113C08091CB0340
:102840009091CC0397FD0DC020917701211109C013
:102850000197181619060CF0BDC19093CC03809314
:10286000CB03DF91CF911F910F91FF90EF90DF90FD
:10287000CF90BF90AF900895E491A9014E0F511DE4
:10288000E7FD5A9541375E4F0CF4B3CE409170018D
:1028900050917101461B570BFC01E854F84FA4916D
:1028A000EA01CA0FD11DA7FDDA951C161D0624F5F5
:1028B000E4914E0F511DE7FD5A95403951400CF0FF
:1028C00098CE68EC70E080E090E00E94B6070E942D
:1028D000600B1092760110927501109274011092A3
:1028E0007301109272011092710110927001109296
:1028F0006F0110926E01AACEE4914E0F511DE7FDBB
:102900005A9541375E4FECF674CEE491A9014E0F13
:10291000511DE7FD5A9541375E4F0CF481CE409131
:10292000700150917101461B570BFC01E851F84FA3
:10293000A491EA01CA0FD11DA7FDDA951C161D0648
:1029400054F4E4914E0F511DE7FD5A954039514022
:102950000CF4B7CF65CEE4914E0F511DE7FD5A95AB
:1029600041375E4F0CF0ADCF5BCEE4912E0F311DA1
:10297000E7FD3A9521373E4F0CF468CE2091700167
:1029800030917101261B370BFC01E85EF74F8491F3
:10299000A901480F511D87FD5A95CA01181619063D
:1029A00054F4E4912E0F311DE7FD3A952039314062
:1029B0000CF487CF4BCEE4912E0F311DE7FD3A95F5
:1029C00021373E4F0CF442CE7CCFFE01F490FC0147
:1029D000EF0DF11DF7FCFA95ED30FE4F0CF469CECA
:1029E00089010A1B1B0BFB01E056F84FF4905801BC
:1029F000AF0CB11CF7FCBA941A141B04CCF5E4918B
:102A00000E0F111DE7FD1A95043F11400CF051CE39
:102A100068EC70E080E090E00E94B6070E94600BD6
:102A20001092760110927501109274011092730148
:102A300010927201109271011092700110926F0148
:102A400010926E011092DF031092DE031092DD03EC
:102A50001092DC031092DB031092DA031092D90378
:102A60001092D8031092D7038FEF80937701DACEBC
:102A7000E4910E0F111DE7FD1A950D301E4F44F61F
:102A800018CEFE01C4915C01AC0EB11CC7FDBA9416
:102A9000E501D195C195D1091FCEE491B9016E0F21
:102AA000711DE7FD7A957195619571092ACEFB013B
:102AB0001491FC01E10FF11D17FDFA95ED30FE4F69
:102AC0000CF441CEFD01E056F84FC4915901AC0E13
:102AD000B11CC7FDBA94E5011C161D066CF4E49107
:102AE0006901CE0ED11CE7FDDA9404EFC01601E0B7
:102AF000D0060CF48DCF27CEE491E901CE0FD11D85
:102B0000E7FDDA95FE01ED30FE4F0CF081CF1BCED4
:102B1000FB016491EC01C60FD11D67FDDA95D195DB
:102B2000C195D10922CEE491B9016E0F711DE7FD67
:102B30007A957195619571092BCEFB01C491FC01C9
:102B4000EC0FF11DC7FDFA95ED30FE4F0CF441CEB0
:102B5000FA01E056F84FA491E901CA0FD11DA7FD73
:102B6000DA951C161D066CF4E4915901AE0EB11CE9
:102B7000E7FDBA9404EFA01601E0B0060CF448CFCC
:102B800028CEE491D901AE0FB11DE7FDBA95FD0144
:102B9000ED30FE4F0CF03CCF1CCEFB016491860F54
:102BA000911D67FD9A9591958195910923CEE491A8
:102BB0002E0F311DE7FD3A953195219531092CCE27
:102BC000019629F09093CC038093CB032BCE88E71A
:102BD00090E0F8CF88E790E09093CC038093CB030C
:102BE0008091C70388301CF48F5F8093C703C0E0D7
:102BF00019E08091C703C8170CF033CE68EE7CE172
:102C000080E090E00E94000C209172032103F0010B
:102C10001124E65DFC4F60587A4D7183608368E64D
:102C200070E180E090E00E94000C2091720321038B
:102C3000F0011124E65DFC4F60547D4E7383628386
:102C400064E670E080E090E00E94000C2091720346
:102C50002103F0011124E65DFC4F625371098109E3
:102C600091097583648364E670E080E090E00E94DF
:102C7000000C209172032103F0011124E65DFC4F4A
:102C800062537109810991097783668364E070E07A
:102C900080E090E00E94000C209172032103F0017B
:102CA0001124E65DFC4F60872F5F20937203CF5F96
:102CB000A0CFFF920F931F93CF93DF93EC01F62EDB
:102CC00008811981C8010E94102DF81621F06F2D7E
:102CD000C8010E94182DCE01DF91CF911F910F9155
:102CE000FF9008950C94102D0F931F93CF93DF93B3
:102CF0008C01EB010E94102D8883C80101960E946F
:102D0000102D8983CE01DF91CF911F910F910895EE
:102D10001F920F920FB60F9211248F939F93809161
:102D2000E1009091E100937F9093E10083FF0FC059
:102D30001092E90091E09093EB001092EC0092E386
:102D40009093ED001092EE0398E09093F00082FFD4
:102D500022C093E09093E9009091F200992319F03A
:102D60009AE39093E80090916901992341F0909142
:102D70006901915090936901911101C05D9A909100
:102D8000ED03992341F09091ED0391509093ED0361
:102D9000911101C0289A84FF18C08091E2008E7EB4
:102DA00081608093E2008091E1008F7E8093E1005A
:102DB00080916A018E7E806180936A019F918F91DC
:102DC0000F900FBE0F901F90189580FFF7CF809146
:102DD000E2008E7E80618093E2008091E1008E7E31
:102DE0008093E10080916A018E7E8160E5CF1F9221
:102DF0000F920FB60F921124CF92DF92EF92FF92B3
:102E00000F931F932F933F934F935F936F937F93F2
:102E10008F939F93AF93BF93EF93FF93CF93DF93E2
:102E2000CDB7DEB76C97DEBFCDBF1092E9008091C1
:102E3000E80083FF25C068E0CE0145960E944C065D
:102E400082EF8093E8008D8987FF39C09091E80078
:102E500090FFFCCF982F907609F034C19E894F895E
:102E6000588D2F89F88C911131C0803861F580918F
:102E70006B018093F1001092F1008EEF8093E800D7
:102E80006C960FB6F894DEBF0FBECDBFDF91CF9129
:102E9000FF91EF91BF91AF919F918F917F916F9132
:102EA0005F914F913F912F911F910F91FF90EF9064
:102EB000DF90CF900F900FBE0F901F9018959EEF50
:102EC0009093E800C7CF1092F100D5CF913059F41C
:102ED0008111D3CF4130510581F680916B018D7FF7
:102EE00080936B01CACF933049F48111C6CF413032
:102EF000510519F680916B018260F2CF953041F453
:102F00008091E80080FFFCCF20682093E300B5CFDC
:102F1000963009F0A9C00B8D1C8D22E01092E900BB
:102F20001092670110926601F2122EC01092650194
:102F3000109264010E941B061F8299E09983FA8215
:102F400091E09E8390EA98879AEF99872091660195
:102F500030916701275F3F4F3C832B838D83109215
:102F6000E9001092670110926601109365010093C9
:102F7000640149E050E0BE016F5F7F4F80E00E9436
:102F8000F5050E941B0679CF10936501009364013B
:102F90000E94B305DC0112960D911C9101151105DB
:102FA00009F451C1D801ED91FC910480F581E02D27
:102FB000BE016B5E7F4FC8010995009709F03EC1C5
:102FC000F80100851185EACFF3E0FF120EC08F896A
:102FD000882309F440C0823061F440E867E080E172
:102FE00096E00E94BA19811148CF81E28093EB00EC
:102FF00047CF813029F440E86BE084E096E0F1CFE0
:10300000833099F70E94B305DC011296ED90FC9095
:103010008E010F5F1F4F6801E114F10479F0D701B1
:10302000ED91FC910680F781E02DB801C70109956B
:10303000080F111DF701E084F184EECFD8011C9236
:10304000F60101900020E9F73197BF016C197D0965
:1030500040E0C601C6CF6EEE75E0FB01449150E042
:1030600080E80E94F50509CF973009F4BECF98306B
:1030700021F481E08093F10000CF993009F0FDCE7A
:10308000837009F0B2CFE3E1F1E081E031E096E353
:103090002191222371F08093E9003093EB00DF014E
:1030A00011972C912093EC009093ED008F5F873067
:1030B00079F78EE78093EA001092EA008F89809377
:1030C000EE03DBCE8B8D9C8D1092E9001092670190
:1030D000109266019093650180936401898D81113E
:1030E00092C08E899D89913A49F4813209F07DCF51
:1030F00047E050E064E071E080E0B3CF913209F046
:1031000074CF833269F48F89988DB0E0A0E080930A
:10311000000190930101A0930201B0930301ADCE91
:10312000803269F48091E80082FFFCCF67E084E0A0
:1031300091E00E944C068BEF8093E8009ECE823295
:1031400009F09BCE8F8980930B01EEEFFFE785910D
:1031500094918B3F9C4D51F1E0E0F8E080910401A7
:1031600090910501A0910601B0910701803B944028
:10317000A105B105F1F480910B0180FD1AC0EE3F6D
:103180008AE0F80789F587E797E791838083809144
:1031900060008093680188E19BE00FB6F894A895E1
:1031A000809360000FBE9093600067CEEEEFFAE070
:1031B000D5CF808191818737974709F05ECEA8955A
:1031C00080916000886180936000809168018093A5
:1031D0006000EE3F2AE0F20789F08091FE0A9091AC
:1031E000FF0A9183808349CE808191818737980738
:1031F00051F29093FF0A8093FE0AC5CF1092FF0A06
:103200001092FE0A3ACE0E94B305DC0112960D918F
:103210001C910115110509F4E8CED801ED91FC913E
:103220000190F081E02DBE016B5E7F4FC8010995D2
:10323000811123CEF80100851185EBCF18161906F0
:103240000CF41BCED2CEF1E0FF12BECE62EF75E0E1
:1032500004CF0F920FB68F939F93EF93FF938091BC
:103260005B018D5F8D3708F08D5780935B01ECE536
:10327000F1E080818E4F808391819F4F9183828185
:103280008F4F828383818F4F8383E0E6F1E08081DB
:103290008F5F808381818F4F818382818F4F828373
:1032A00083818F4F83838FB18F6066991C9B8827A2
:1032B0008F3681F480915A01981B963068F0E0E0D7
:1032C000F8E087E78083818388E180936000F09352
:1032D0006000FFCF90935A01FF91EF919F918F91E2
:1032E0000FBE0F9018951F920F920FB60F921124D8
:1032F0002F933F934F935F936F937F938F939F93FE
:10330000AF93BF93EF93FF93809156019091570134
:10331000A0915801B09159010097A105B10539F16B
:1033200020915501211105C0369A20915401211197
:10333000379A0197A109B109B7FD08C080935601DA
:1033400090935701A0935801B0935901FF91EF91C9
:10335000BF91AF919F918F917F916F915F914F91AD
:103360003F912F910F900FBE0F901F9018950E94C4
:10337000E207ECCFEF92FF920F931F93CF93DF936F
:10338000F82E192FE62E042F81E0860F880F0E9459
:10339000C70583E00E94C705CF2DD12FEC0EFD2E6F
:1033A000F11CCE15DF05B9F007FF13C0FE018491B3
:1033B0000E94C705182F80E00E94C705812321962F
:1033C0008111EFCFDF91CF911F910F91FF90EF907F
:1033D00008958881EDCF81E0F5CFEFEEF7E013821D
:1033E000128288EE93E0A0E0B0E084839583A68308
:1033F000B7838DE191E0918380838FEF9FEF958775
:103400008487EFE4F8E0138212828FE291E09183E7
:10341000808387E894E090934E0880934D0880E085
:1034200090E890934C0880934B0846983E9A4798B2
:103430003F9A0895CDB7DEB76C97DEBFCDBF7894C5
:1034400083E084BD83E085BD81E080936E00E1E888
:10345000F0E083E08083E0E881E08083E1E983E0DD
:103460008083E0E981E08083E1EC87E08083E3EC26
:1034700081E08083E0EC82E08083E2EC81E0808385
:10348000EAE787E08083806880831092EE031092E1
:103490006B0110926A018091D70081608093D70000
:1034A00080EA8093D80089B5806189BD89B5826042
:1034B00089BD09B400FEFDCF81E090E00E940707BE
:1034C0008091D8008F7C80618093D8008091E0004B
:1034D000807F8093E0008091E1008E7E8093E10008
:1034E0008DE08093E200559A209A81EC80937C00D5
:1034F00081EF85B987EE84B982E38BB982EF8AB90F
:10350000769A6E9880EF81BB10BA80E58CBD81E021
:103510008DBD85E00E94A6085F9A85E00E94A608FE
:103520005C98E8ECF6E085918EBD00000DB407FED6
:10353000FDCFE53DC1F75C9A81E88093640081E0AE
:103540008093650080E00E94690580E80E94310A4E
:1035500002E010E08823A9F05C9885EA8EBD0000A7
:103560000DB407FEFDCF5C9A2E982F982D98809170
:10357000640080628093640081E083BF889513BEFD
:10358000FCCF84E00E94310A8823D9F12D9884E889
:103590000E94310A8823B1F02D9A88EC0E94A60877
:1035A0002F981A8309836FEFCE0101960E94591656
:1035B00084EF91E00E9407072F9A84E80E94310A65
:1035C0008111FBCF84E10E94310A8823B1F02D9A4A
:1035D00088EC0E94A6082E981A83098360E0CE0129
:1035E00001960E94591684EF91E00E9407072E9AD7
:1035F00084E10E94310A8111FBCF88EC0E94A60869
:10360000C0CF2D9A82E090E00E947216882309F4C0
:10361000D9C00E94B60881E090E00E947216182F6F
:10362000147081FF0EC011112E98F1EFEF2EFF24C0
:10363000FA9480E40E94310A882309F4C6C02E9AC5
:103640002F9A82E30E94A6080E94A9088111F9CF4F
:10365000809164008E7F8093640080917A00806402
:1036600080937A0080917A0086FDFCCF00917800EB
:10367000109179000E949E07AB01BC01C801B0E027
:10368000A0E0DC01992788278C019D01040F151FFC
:10369000261F371FC901B8012091640021602093C3
:1036A0006400611571058105910511F00E94072DD7
:1036B00081E280930C010E944D0B8091BB03882313
:1036C00009F4E0C00E94B60881E00E9469058FEF0E
:1036D0009FEF9093FC078093FB071091E00381E23A
:1036E000113019F082E3111182E480930C010E94E1
:1036F0000D0B882309F45EC0123011F40C946F296D
:1037000008F0C3C0112309F43AC1113009F40BC207
:103710008091BB038823D9F142E06EE370E08DE72E
:1037200090E00E948A0442E06FE370E08DE790E051
:103730000E948A0441E06EE370E08DE790E00E9411
:10374000D20841E06FE370E08DE790E00E94D2087C
:1037500041E06EE370E08EE790E00E94D20841E025
:103760006FE370E08EE790E00E94D2082FE330E034
:103770004EE750E06BE370E08EE790E00E94DB08DC
:1037800041E06CE370E08FE790E00E94BC0840E00D
:1037900054E06FEE73E08FEE97E00E941B0781E02C
:1037A0000E94690580916D0180936C010E94A908B7
:1037B00080936D0180E090E0892B09F48ECF0E9408
:1037C00000008BCF0E94B10826CF112331F004E016
:1037D000E016F10411F42E9A2F9881E00E946905F9
:1037E00000E128E548E156E0B70184E190E00E945D
:1037F000C10480E00E9469058FE00E94A6082FEFB7
:10380000E21AF20A39E1E316F10409F012CF1123AA
:1038100011F02F9A2D9880E991E00E9407072D9AC8
:1038200081E090E00E94721680FF0BCF8AE090E06A
:103830000E9472169FEF980F9E3F08F002CF22E37E
:1038400030E03093C1032093C00328E330E030938D
:10385000BF032093BE030BE010E0682F8FE498E0D5
:103860000E945F09C8010E9472160F5F1F4F01314D
:10387000110599F780E00E94690588EE93E00E94A7
:103880000707DFCE0E94B1081FCF143011F40C944B
:10389000B42B10F40C942B2B153009F039CF0EE01B
:1038A00010E01093C1030093C00380E290E0909376
:1038B000BF038093BE0381E080930D0189E898E007
:1038C0000E940B0A1093C1030093C00388E290E0AA
:1038D0009093BF038093BE0387E798E00E940B0A92
:1038E00084E40E94310A882309F440C004E610E011
:1038F00084E2C82ED12C90E2E92EF12CD092C103A3
:10390000C092C003F092BF03E092BE038CE698E041
:103910000E940B0A81E00E9469051A8309836FEFF8
:10392000CE0101960E9459160F5F1F4F07381105EF
:1039300029F764EF71E080E090E00E94B607F09212
:10394000C103E092C003F092BF03E092BE0380E6A1
:1039500098E00E940B0A81E00E94690568EE73E01E
:1039600080E090E00E94B6071092E00388E00E9499
:10397000260A882309F4CCCE1092E003C9CE8AE04F
:1039800090E09093C1038093C0039093BF03809312
:10399000BE0382E080930D018DEA98E00E940B0A3D
:1039A0008091D7039091D8032091DB033091DC0301
:1039B000820F931F9093D8038093D7034091D9032C
:1039C0005091DA032091DD033091DE03240F351F7F
:1039D0003093DA032093D903893C12E3910734F042
:1039E000885E95439093D8038093D7038091D70343
:1039F0009091D8038C304EEF940734F488519A4C50
:103A00009093D8038093D703253F5AE1350734F0CC
:103A1000285E3C413093DA032093D9038091D90387
:103A20009091DA038C306EEF960734F48851934E00
:103A30009093DA038093D9038091BC039091BD03E6
:103A40006EE170E00E94892D892BE1F464E670E05C
:103A500080E090E00E94000C625371098109910995
:103A60007093DC036093DB0364E670E080E090E039
:103A70000E94000C62537109810991097093DE0361
:103A80006093DD038091D9039091DA0324E630E05E
:103A9000B9010E949D2DFB0134978091D70390912D
:103AA000D803B9010E949D2DCB0108E028E045EA2A
:103AB00058E0BF0104970E94C10484E00E94260AD6
:103AC0008823A1F083E08093D60380E099E190936E
:103AD000CE038093CD0380E89CE09093D003809345
:103AE000CF030E94360B81E08093E00380E80E94C0
:103AF000260A811105C080E10E94260A882331F040
:103B00008091BB03882361F00E94B10888E00E9485
:103B1000260A882309F4FCCD83E08093E003F8CDE6
:103B20000E94B608F3CF8091D603181614F00C94B7
:103B300064298091CB039091CC0389389F4F0CF47A
:103B400055C48091BC0380FD4CC080E20E94310AC4
:103B5000882329F08091D50381508093D50380E498
:103B60000E94310A882329F08091D5038F5F8093CA
:103B7000D5038091D50388311CF088518093D503FB
:103B80008091D50387FF03C0885E8093D50380E8CA
:103B90000E94310A882329F1E091D5038E2F880FE6
:103BA000990BFC01E05DF74FE4912091D103309136
:103BB000D2032E0F311DE7FD3A953093D2032093A7
:103BC000D103FC01EF5CF74FE4918091D303909116
:103BD000D4038E0F911DE7FD9A959093D4038093A3
:103BE000D30380E10E94260A8823D1F06CE271E0C1
:103BF00080E090E00E94B60763E070E080E090E033
:103C00000E94000C623071058105910509F082C2A5
:103C100068EC70E080E090E00E94B6070E94600BC4
:103C20008091D3039091D403181619062CF40197B0
:103C30009093D4038093D3038091D3039091D403C2
:103C400097FF05C001969093D4038093D3032091EE
:103C5000D3033091D403121613064CF48091D10390
:103C60009091D20301979093D2038093D1038091D6
:103C7000D1039091D20397FF05C001969093D20390
:103C80008093D1032D32314034F08CE291E0909357
:103C9000D4038093D3038091D3039091D403843DC4
:103CA0009E4F34F484ED9EEF9093D4038093D3031E
:103CB0008091D1039091D2038D32914034F08CE207
:103CC00091E09093D2038093D1038091D10390919E
:103CD000D203843D9E4F34F484ED9EEF9093D20343
:103CE0008093D1038091CD039091CE032091D10395
:103CF0003091D203820F931F9093CE038093CD0314
:103D00004091CF035091D0032091D3033091D4033D
:103D1000240F351F3093D0032093CF038C30FEEF58
:103D20009F0734F488519A4C9093CE038093CD032F
:103D30008091CD039091CE03853F03E3900734F04B
:103D4000885E95439093CE038093CD032C301EEF75
:103D5000310734F42851334E3093D0032093CF03EE
:103D60008091CF039091D003853F2AE1920734F0F0
:103D7000885E9C419093D0038093CF030091CF0342
:103D80001091D0031E870D8724E630E0C801B901E9
:103D90000E949D2D7B01E091D5030E2FEE0F110B9C
:103DA0001E830D83F801E85EF74F0091CD0310915B
:103DB000CE031E8B0D8BC801B9010E949D2D4D8134
:103DC0005E814050584F0D811E810851184F1A874F
:103DD00009870D811E810053184F1C870B872D8189
:103DE0003E812854384F8D819E818056984FA091F6
:103DF000CB03B091CC031A161B060CF0A8C1E491BA
:103E000037016E0E711CE7FD7A94FA0144916B0143
:103E1000C40ED11C47FDDA94E985FA854491470127
:103E2000840E911C47FD9A94F80144915B01A40E05
:103E3000B11C47FDBA94F9012491E20EF11C27FD53
:103E4000FA94FC0184918B01080F111D87FD1A95CE
:103E50009401A501B701C8010E94DB089301A601E6
:103E6000B401C5010E94DB089701A801B301C60196
:103E70000E94DB0884E00E94260A882309F4A5C07A
:103E80002091CA0328300CF0A0C0422F022E000C53
:103E9000550B8D819E81880F991FFC01E05DF74FC6
:103EA000E49139E0349FD001359FB00D1124AD5815
:103EB000BC4F34E1E302F00111241596FC93EE931C
:103EC0001497FC01EF5CF74FE491E302F001112439
:103ED0001796FC93EE931697EB85FC8584910D89DC
:103EE0001E89080F111D87FD1A9511961C930E93BC
:103EF000E985FA8584910D851E85080F111D87FDC2
:103F00001A9513961C930E93129784E618968C9329
:103F10002F5F2093CA0364E070E08CE494E00E9479
:103F20008A0864E070E080E090E00E94B60764E0F8
:103F300070E088EE93E00E948A0864E070E080E020
:103F400090E00E94B60764E070E084E893E00E948D
:103F50008A0864E070E080E090E00E94B60764E0C8
:103F600070E080E293E00E948A0864E070E080E004
:103F700090E00E94B60764E070E08CEB92E00E9453
:103F80008A0864E070E080E090E00E94B60764E098
:103F900070E088E592E00E948A0864E070E080E0CA
:103FA00090E00E94B60764E070E084EF91E00E9428
:103FB0008A0864E070E080E090E00E94B60764E068
:103FC00070E080E991E00E948A0800E019E024E6B0
:103FD000E22EF12C802F90E0B090CA036B2D0B2CB9
:103FE000000C770B861797070CF000C2189FF001A2
:103FF000199FF00D1124ED58FC4F4081518124810F
:104000003581420F531F51834083A281B3812681A2
:1040100037812A0F3B1F338322834C30AEEF5A0780
:1040200024F448515A4C51834083189FF001199F42
:10403000F00D1124ED58FC4F40815181453FB3E311
:104040005B0724F0485E5543518340832C30EEEFEC
:104050003E075CF4189FF001199FF00D1124ED58F4
:10406000FC4F2851334E33832283189FF001199F50
:10407000F00D1124ED58FC4F22813381253F4AE198
:10408000340724F0285E3C4133832283189FF001DB
:10409000199FF00D1124ED58FC4F208527FF84C196
:1040A0001086A02E6B0151E0C51AD1084A2D50E0B0
:1040B0004C155D050CF065C19A012F5F3F4F129FB3
:1040C000F001139FF00D1124ED58FC4F808091807A
:1040D000149F9001159F300D11242D583C4FD9018C
:1040E00011969C928E924481558115965C934E93C5
:1040F00014974281538113965C934E931297468195
:10410000578117965C934E931697408518964C935B
:10411000A394CCCF1092D4031092D3031092D20365
:104120001092D10360E072E380E090E00E94000C06
:104130007093CE036093CD0360E079E180E090E07E
:104140000E94000C7093D0036093CF0369CDE4917B
:104150005701AE0EB11CE7FDBA94FA0144912B0150
:10416000440E511C47FD5A94E985FA854491670134
:10417000C40ED11C47FDDA94EB85FC8544911B01EC
:10418000240E311C47FD3A94F9012491E20EF11CF2
:1041900027FDFA94FC018491680F711D87FD7A95C3
:1041A000CE14DF0414F00C94432CAE14BF0414F4AA
:1041B0000C945B2C9E2D8F2D7601C92ED82E962F18
:1041C000872FB101292E382EAE14BF0411F5261603
:1041D000370654F0962F872F6215730514F4922D2D
:1041E000832D1B01692F782F421453042CF0641582
:1041F00075050CF4B2012101F0E4EF16F10408F0AA
:1042000039CE6F5F462F4419B701C2010E948A045C
:1042100031CE942D852D2B01692F782F9A2D8B2D42
:104220005701E92EF82E810104191509188F0F8BFB
:1042300086010A191B091A8F098F8B0104191509A8
:1042400018870F8387010A191B09188B0F878B01A9
:10425000021913091A8B098B87010C191D091C8F70
:104260000B8FEC14FD0409F443C0860101501109C1
:104270001C8B0B8B8501912C812C712C612C2B8933
:104280003C8920173107BCF1C301698D7A8D0E94EA
:104290009D2D9B01240D351DC4016F8578890E94D9
:1042A0009D2DCB01840D951D4F89588D640E751E73
:1042B0006F817885860E971E821793071CF0582F02
:1042C000C901252F0034110530F441E0420F481B8D
:1042D000B8010E948A040F5F1F4FD1CF922D832D0A
:1042E0001B01692F782F9E2D8F2D76010C94682C41
:1042F000FC8AEB8ABFCFC8018C199D09A989BA89AC
:104300008A9F40018B9F900C9A9F900C1124C801AA
:104310008A199B09EF81F8858E9F60018F9FD00CD1
:104320009E9FD00C1124E016F1060CF4A3CDC4011D
:104330006B8D7C8D0E949D2D9B01220D331DC6012E
:104340006F8578890E949D2DCB01840D951D49892B
:104350005A89840E951E6F817885C60ED71E8217E6
:1043600093071CF0582FC901252F0034110530F494
:1043700041E0420F481BB8010E948A040F5F1F4FA3
:10438000D2CF169FF001179FF00D1124ED58FC4F6E
:104390001182108215821482138212821782168271
:1043A0001086BA94B092CA03189F9001199F300DDD
:1043B0001124F901ED58FC4F6F0182819381B701FF
:1043C0000E949D2D9B0180819181B7010E949D2DAE
:1043D000CB0141E0B9010E94D208D60118968C9118
:1043E0001897845018968C930F5FF4CDB12C19E078
:1043F00094E6892E912C4B2D50E080917203082E6B
:10440000000C990B481759070CF0D0C1149FF0010C
:10441000159FF00D1124E65DFC4F208131818481D0
:104420009581280F391F31832083628173818681B2
:104430009781860F971F938382832C30BEEF3B07B3
:1044400024F428513A4C31832083149FF001159FA6
:10445000F00D1124E65DFC4F20813181253F03E3FF
:10446000300724F0285E3543318320838C302EEFD3
:1044700092075CF4149FF001159FF00D1124E65D86
:10448000FC4F8851934E93838283149FF001159FB4
:10449000F00D1124E65DFC4F82819381853F3AE166
:1044A000930724F0885E9C419383828300E0149FED
:1044B000C001159F900D1124AC01465D5C4F7A013F
:1044C0006A0152E0C50ED11C202F30E06091CA0372
:1044D000462F062E000C550BD701ED91FC91D6010D
:1044E0008D919C91241735070CF022C1129FD001A9
:1044F000139FB00D1124AD58BC4F2D913C911197D5
:104500002E1B3F0B1296ED91FC91DF01A81BB90BFE
:10451000CD01F901EC50FE4FE93EF34030F4FC01CF
:10452000EC50FE4FE93EF34080F037FF03C0319579
:104530002195310997FF03C0919581959109280F25
:10454000391F2C3B32400CF0F1C0702F9A012150E2
:104550003109872F90E082179307B4F4189FD00198
:10456000199FB00D1124AD58BC4F0196189FF00152
:10457000199FF00D1124ED58FC4F812F01900D92E1
:104580008A95E1F77F5FE5CF149FF001159FF00D4D
:104590001124ED58FC4F118210821582148213826F
:1045A000128217821682108661506093CA036BE4F0
:1045B00070E086E990E00E948A088091C80390919B
:1045C000C90302969093C9038093C80320912903DD
:1045D0002103F0011124E756FD4FD6018D919C91E6
:1045E0009183808364E670E080E090E00E94000C9C
:1045F000209129032103F0011124E756FD4F625356
:104600007109810991097583648364E670E080E033
:1046100090E00E94000C209129032103F001112455
:10462000E756FD4F625371098109910977836683CB
:1046300064E070E080E090E00E94000C209129038B
:104640002103F0011124E756FD4F60872F5F20936F
:1046500029032103F0011124E756FD4FD7018D9165
:104660009C9191838083D6018D919C9193838283C9
:1046700064E670E080E090E00E94000C2091290345
:104680002103F0011124E756FD4F6253710981099E
:1046900091097583648364E670E080E090E00E9495
:1046A000000C209129032103F0011124E756FD4F4E
:1046B00062537109810991097783668364E070E030
:1046C00080E090E00E94000C209129032103F0017A
:1046D0001124E756FD4F60872F5F209329033B2D60
:1046E000832F90E020917203422F022E000C550B75
:1046F0004150510984179507B4F4189FD001199FB0
:10470000B00D1124A65DBC4F0196189FF001199FB2
:10471000F00D1124E65DFC4F812F01900D928A95DA
:10472000E1F73F5FDDCF2150209372030F5FCCCEC6
:10473000B4010E949D2D6B01CF01B4010E949D2DFB
:10474000CB01F7012085213009F144F4222391F0B7
:1047500025E045E0B6010E943C0A16C02230F1F087
:104760002330B1F7B6016850710900E120E140E261
:1047700057E007C0B6016850710900E120E140E848
:1047800057E008970E94C104B39435CEB601685033
:10479000710900E120E140E657E0F3CFB60168502F
:1047A000710900E120E140E457E0EBCFB12C19E0C2
:1047B00084E6882E912C4B2D50E080912903082E01
:1047C000000C990B481759070CF0D5C1149FF00144
:1047D000159FF00D1124E756FD4F20813181848112
:1047E0009581280F391F31832083628173818681EF
:1047F0009781860F971F938382832C300EEF3007AB
:1048000024F428513A4C31832083149FF001159FE2
:10481000F00D1124E756FD4F20813181253F63E3E0
:10482000360724F0285E3543318320838C307EEFB9
:1048300097075CF4149FF001159FF00D1124E756C3
:10484000FD4F8851934E93838283149FF001159FEF
:10485000F00D1124E756FD4F82819381853FAAE137
:104860009A0724F0885E9C419383828300E0149F22
:10487000C001159F900D1124FC01E756FD4F7F01EB
:104880006F01F2E0CF0ED11C202F30E06091CA03FF
:10489000462F062E000C550BD701ED91FC91D60149
:1048A0008D919C91241735070CF027C1129FD001E0
:1048B000139FB00D1124AD58BC4F2D913C91119711
:1048C0002E1B3F0B1296ED91FC91DF01A81BB90B3B
:1048D000CD01F901E057FE4FE132F34030F4FC0125
:1048E000E057FE4FE132F34080F037FF03C03195CF
:1048F0002195310997FF03C0919581959109280F62
:10490000391F283532400CF0F6C0702F9A01215023
:104910003109872F90E082179307B4F4189FD001D4
:10492000199FB00D1124AD58BC4F0196189FF0018E
:10493000199FF00D1124ED58FC4F812F01900D921D
:104940008A95E1F77F5FE5CF149FF001159FF00D89
:104950001124ED58FC4F11821082158214821382AB
:10496000128217821682108661506093CA036BE42C
:1049700070E086E990E00E948A088091C8039091D7
:10498000C90304969093C9038093C80320919802A9
:104990002103F0011124E858FE4FD7018D919C911D
:1049A00091838083D6018D919C919383828364E669
:1049B00070E080E090E00E94000C209198022103BA
:1049C000F0011124E858FE4F6253710981099109E1
:1049D0007583648364E670E080E090E00E94000CE0
:1049E000209198022103F0011124E858FE4F6253F0
:1049F0007109810991097783668364E070E080E042
:104A000090E00E94000C209198022103F0011124F3
:104A1000E858FE4F60872F5F209398022103F00132
:104A20001124E858FE4FD7018D919C91918380838A
:104A3000D6018D919C919383828364E670E080E03F
:104A400090E00E94000C209198022103F0011124B3
:104A5000E858FE4F62537109810991097583648397
:104A600064E670E080E090E00E94000C20919802E3
:104A70002103F0011124E858FE4F625371098109A6
:104A800091097783668364E070E080E090E00E94A3
:104A9000000C209198022103F0011124E858FE4FE8
:104AA00060872F5F209398023B2D832F90E0209109
:104AB0002903422F022E000C550B41505109841737
:104AC0009507B4F4189FD001199FB00D1124A75673
:104AD000BD4F0196189FF001199FF00D1124E75664
:104AE000FD4F812F01900D928A95E1F73F5FDDCF59
:104AF0002150209329030F5FC7CEB4010E949D2D42
:104B00006B01CF01B4010E949D2DCB01F7012085DF
:104B1000213009F144F4222391F024E044E0B6016D
:104B20000E943C0A16C02230F1F02330B1F7B601E2
:104B30006450710908E028E040E057E007C0B60182
:104B40006450710908E028E048E157E004970E94AA
:104B5000C104B39430CEB6016450710908E028E076
:104B600040E157E0F3CFB6016450710908E028E056
:104B700048E057E0EBCFD12C19E004E6A02EB12C91
:104B80004D2D50E080919802082E000C990B48178B
:104B900059070CF026C1149FF001159FF00D112448
:104BA000E858FE4F2081318184819581280F391F7B
:104BB000318320836281738186819781860F971F5D
:104BC000938382832C300EEF300724F428513A4C23
:104BD00031832083149FF001159FF00D1124E858B4
:104BE000FE4F20813181253F63E3360724F0285EA4
:104BF0003543318320838C307EEF97075CF4149F1C
:104C0000F001159FF00D1124E858FE4F8851934E86
:104C100093838283149FF001159FF00D1124E858AF
:104C2000FE4F82819381853FAAE19A0724F0885E36
:104C30009C419383828300E0149FC001159F900DD7
:104C40001124FC01E858FE4F7F014F01F2E08F0E66
:104C5000911C202F30E06091CA03462F062E000CD5
:104C6000550BD701ED91FC91D4018D919C912417A6
:104C700035070CF078C0129FD001139FB00D11249E
:104C8000AD58BC4F2D913C9111972E1B3F0B2853D3
:104C90003F4F2139314008F064C012962D913C916C
:104CA000D901A81BB90BCD0188539F4F8139914081
:104CB00008F057C0202F41505109822F90E08417EF
:104CC0009507B4F4189FD001199FB00D1124AD5869
:104CD000BC4F0196189FF001199FF00D1124ED585B
:104CE000FC4F812F01900D928A95E1F72F5FE5CF60
:104CF00061506093CA036BE470E086E990E00E9423
:104D00008A088091C8039091C90308969093C903BB
:104D10008093C8033D2D832F90E020919802422F6D
:104D2000022E000C550B4150510984179507B4F41D
:104D3000189FD001199FB00D1124A858BE4F01969D
:104D4000189FF001199FF00D1124E858FE4F812F94
:104D500001900D928A95E1F73F5FDDCF21502093BE
:104D600098020F5F76CFB5010E949D2D4B01CF01B8
:104D7000B5010E949D2DCB01F7012085213009F15D
:104D800044F4222391F022E042E0B4010E943C0A64
:104D900016C02230F1F02330B1F7B401625071092E
:104DA00004E024E040EE56E007C0B401625071090F
:104DB00004E024E048EF56E002970E94C104D39437
:104DC000DFCEB4016250710904E024E040EF56E008
:104DD000F3CFB4016250710904E024E048EE56E0DC
:104DE000EBCF0E941A0CE09177018091BC03909167
:104DF000BD03EE2309F415C2E150E0937701209141
:104E0000D7033091D8034091D9035091DA03B90107
:104E1000615273406F3B7B4258F4BA016159714053
:104E20006F3D754128F4E11103C061E060937701A3
:104E30006091DB037091DC03260F371F3093D8039A
:104E40002093D7036091DD037091DE03460F571F57
:104E50005093DA034093D903293C12E3310734F02D
:104E6000285E35433093D8032093D7032091D7038E
:104E70003091D8032C306EEF360734F428513A4C79
:104E80003093D8032093D703453F7AE1570734F096
:104E9000485E5C415093DA034093D9032091D903D3
:104EA0003091DA032C30AEEF3A0734F42851334E08
:104EB0003093DA032093D903209176011216FCF483
:104EC00040916E0150916F01609172017091730178
:104ED000460F571F50936F0140936E014091700130
:104EE000509171016091740170917501460F571FC7
:104EF00050937101409370012450209376016EE12C
:104F000070E00E94892D892B21F564E670E080E035
:104F100090E00E94000C625371098109910970931D
:104F2000DC036093DB0364E670E080E090E00E94C5
:104F3000000C62537109810991097093DE0360933B
:104F4000DD0368E170E080E090E00E94000C609377
:104F5000DF038091BC039091BD0369E670E00E947D
:104F6000892D892B79F58091D7039091D80390935F
:104F70006F0180936E018091D9039091DA03909331
:104F8000710180937001E091DF032E2F220F330B0C
:104F9000F901E05DF74F849144E18402C0011124DE
:104FA0009093730180937201F901EF5CF74FE491E4
:104FB000E402F0011124F0937501E093740184E69A
:104FC000809376011091760111160CF471C0109245
:104FD0007601109275011092740110927301109273
:104FE0007201109271011092700110926F01109273
:104FF0006E0110E009E0812F90E04091CA03642F18
:10500000042E000C770B2091D7033091D80386171C
:1050100097070CF0A1C0089FF001099FF00D112423
:10502000ED58FC4F80819181821B930B228133814B
:10503000E091D903F091DA032E1B3F0BFC01EC50F9
:10504000FE4FE93EF34030F4F901EC50FE4FE93EEB
:10505000F34080F097FF03C091958195910937FF48
:1050600003C0319521953109820F931F8C3B9240EB
:105070000CF070C0212F61507109822F90E08617CB
:10508000970784F5089FD001099FB00D1124AD58F2
:10509000BC4F0196089FF001099FF00D1124ED58B7
:1050A000FC4F802F01900D928A95E1F72F5FE5CF9D
:1050B0008091700190917101E4E6F0E0BF010E94DF
:1050C0009D2D9B0180916E0190916F01BF010E9407
:1050D0009D2DCB0141E0B9010E94D20814501093DC
:1050E000760187CF41504093CA036BE470E086E9B4
:1050F00090E00E948A088091C8039091C9030596A8
:105100009093C9038093C8031092760110927501A1
:105110001092740110927301109272011092710139
:105120001092700110926F0110926E011092DF03C5
:105130001092DE031092DD031092DC031092DB0369
:105140001092DA031092D9031092D8031092D70369
:10515000109277011F5F4FCF12161306C4F480918F
:10516000D9039091DA0304E610E0B8010E949D2D66
:10517000FB013497C901B8010E949D2DCB0108E0C5
:1051800028E045EA58E0BF0104970E94C10481E08D
:1051900080930D0182E090E09093C1038093C0035F
:1051A0000AE010E01093BF030093BE036091C803B0
:1051B0007091C90390E080E04AE00E94840B80E295
:1051C00090E09093C1038093C0031093BF030093BA
:1051D000BE038091C703082E000C990B0E94D20BCE
:1051E00088E790E09093C1038093C0031093BF03BE
:1051F0000093BE038091D603082E000C990B0E94E9
:10520000D20B8091D603811102C00E94360B88E038
:105210000E94260A882311F40C94881B84E00C94C5
:105220008D1D6EE170E00E94892D892B09F0AFCFB2
:105230008091CB039091CC038837910509F0A7CFDB
:105240006AE070E080E090E00E94000C6830710538
:105250008105910509F09BCF80EF8093770168EE7F
:105260007CE180E090E00E94000C60587A4D7093E1
:10527000D8036093D70368E670E180E090E00E9475
:10528000000C60547D4E7093DA036093D90364E69A
:1052900070E080E090E00E94000C62537109810987
:1052A00091097093DC036093DB0364E670E080E0B7
:1052B00090E00E94000C625371098109910970937A
:1052C000DE036093DD0363CF68EB7BE080E090E07A
:1052D0000E94B6070E94360B82E00C948D1DB4E646
:1052E000EB2EF12C00E0BE016D5F7F4FC7010E94E5
:1052F00074168B819C81019611F41C821B82D02E26
:105300002091C8033091C9038B819C818217930738
:1053100008F099C180E28093C4038093C503809311
:10532000C60310E051E2C52E60E3B62E71E4A72E4D
:10533000EFE29E2EFAE58F2EAFE37A2E13300CF0BB
:105340001AC10E940D0B8823C9F3E0E1F0E0F0934D
:10535000C103E093C0031092BF031092BE0385ED1A
:1053600096E00E940B0A28E530E03093C1032093B9
:10537000C0031092BF031092BE036091C8037091E6
:10538000C90390E080E04AE00E94840B48E350E0CB
:105390005093C1034093C00364E170E07093BF0376
:1053A0006093BE038091C4030E94060A80E490E0EB
:1053B0009093C1038093C003A4E1B0E0B093BF0316
:1053C000A093BE038091C5030E94060AE8E4F0E0C2
:1053D000F093C103E093C00324E130E03093BF03B6
:1053E0002093BE038091C6030E94060A2BE130E0A1
:1053F0004EE350E06BE170E088E390E00E94DB0850
:105400002BE130E046E450E06BE170E080E490E0B6
:105410000E94DB082BE130E04EE450E06BE170E0ED
:1054200088E490E00E94DB08812F012E000C990B8C
:10543000079643E0880F991F4A95E1F7AC014A5F50
:105440005F4F2CE130E06CE170E00E94DB0866E920
:1054500070E080E090E00E94B60780E20E94260A99
:10546000882349F068EC70E086E194E00E948A08A5
:10547000115008F410E080E40E94260A882351F0BD
:105480001F5F133009F412E068EC70E086E194E0ED
:105490000E948A0880E10E94310A882339F1812F15
:1054A000012E000C990BAC014C535C4F7A01DA01D0
:1054B0008C918F5F8C9366E970E08BE092E00E94A4
:1054C0008A08F7018081803311F480E28083D7015C
:1054D0008C91813209F4AC92F70180818B3509F40B
:1054E000B082D7018C91803409F4CC9280E80E947C
:1054F000310A882331F1812F012E000C990BFC0118
:10550000EC53FC4F7F0180818150808366E970E01D
:105510008BE092E00E948A08D7018C91803209F4D6
:105520007C92F70180818F3209F48082D7018C91BF
:105530008F3109F49C92F7018081803411F480E26C
:10554000808388E00E94310A882349F0123039F4C0
:1055500068EC70E086E194E00E948A0813E0809194
:105560006D0180936C010E94A90880936D0181E018
:105570000E946905E3CEF5E00F9F800111240A59CE
:105580001F4F480122E0821A9108BE016D5F7F4FD4
:10559000C4010E9474168B819C81019611F41C82B7
:1055A0001B82C8010E947216682E58014FEFA41A80
:1055B000B40AC5010E947216782E780152E0E50EF9
:1055C000F11CC7010E947216C82E9A8289826091CE
:1055D000C803CE0101960E945916C80101979A830B
:1055E00089836091C903CE0101960E94591660918A
:1055F000C403C8010E94182D6091C503C5010E9413
:10560000182D6091C603C7010E94182D8B819C81C3
:105610009093C9038093C8036092C4037092C5033A
:10562000C092C603D3940B5F1F4F67E0D612A9CF79
:1056300080E28093C4038093C5038093C6030E94D5
:105640004D0B0C94881B75E0E70EF11C0F5F0730C3
:1056500009F049CEF4CF80E290E09093C1038093AB
:10566000C0031092BF031092BE0381E080930D012E
:105670004BE050E067E371E08FE498E00E94590648
:1056800029E0C22ED12C04E610E0F12CE12C3EE101
:10569000A32EB12C68EC73E0C8010E9474168091AF
:1056A000C8039091C903019621F41092C903109286
:1056B000C803C80102960E9472168093C403C801F1
:1056C00003960E9472168093C503C80104960E9437
:1056D00072168093C603B092C103A092C003D09209
:1056E000BF03C092BE03BFEFEB1AFB0AC7010E94C3
:1056F000D20B83EA98E00E940B0A8091C4030E94B7
:10570000060A8091C5030E94060A8091C6030E9482
:10571000060A81EA98E00E940B0A6091C803709122
:10572000C90390E080E04AE00E94840B1092C90314
:105730001092C8030B5F1F4FE8E0CE0ED11CF7E0BC
:10574000EF16F10409F0A6CF88E00E94260A811125
:105750001092E00380E20E94260A882311F40C9440
:10576000881B85E00C948D1D80E290E09093C1032E
:105770008093C0038EE190E09093BF038093BE03BB
:1057800082E080930D018BE998E00E940B0A84E08F
:105790000E94260A882319F081E08093E00388E0C4
:1057A0000E94260A81110E944D0B80E80E94260A61
:1057B000811105C080E10E94260A882389F080912A
:1057C000BB03882309F45CC00E94B1086091BB034D
:1057D00082E090E09A838983CE0101960E94591657
:1057E0008091BC039091BD0364E170E00E94892D1B
:1057F000892B61F5809164008E7F809364008EE533
:1058000080937C0062E070E080E090E00E94B60748
:1058100080917A00806480937A0080917A0086FD7E
:10582000FCCF2091780030917900809164008160F4
:105830008093640050E040E060E070E381E190E03C
:105840000E94262D3093C3032093C20384E690E088
:105850009093C1038093C00382E390E09093BF03D1
:105860008093BE0381E080930D016091C20370912B
:10587000C30390E080E04AE00E94840B0C94881BF4
:105880000E94B608A3CFAC14BD0414F00C94E4201D
:10589000AE14BF0414F40C946E21942D852D2101B7
:1058A0001B01692F782F9C2D8D2D67017501A92E65
:1058B000B82E0C94DA20AC14BD0414F40C9413210B
:1058C000942D852D2101292E382E9A2D8B2D5601B0
:1058D000C92ED82E0C9413218F929F92AF92BF9213
:1058E000CF92DF92EF92FF92CF93DF93EC0168812A
:1058F00079818A819B81611571058105910521F46A
:1059000064E279ED8BE597E02DE133EF41E050E083
:105910000E94262D49015A019B01AC01A7EAB1E47E
:105920000E94452D6B017C01ACEEB4EFA501940102
:105930000E94532DC60ED71EE81EF91EF7FE06C0A4
:1059400081E0C81AD108E10880E8F80AC882D98243
:10595000EA82FB82C701B6019F77DF91CF91FF906A
:10596000EF90DF90CF90BF90AF909F908F90089571
:105970008F929F92AF92BF92CF92DF92EF92FF925F
:1059800060910E0170910F018091100190911101B1
:10599000611571058105910521F464E279ED8BE5CE
:1059A00097E02DE133EF41E050E00E94262D4901C0
:1059B0005A019B01AC01A7EAB1E40E94452D6B019D
:1059C0007C01ACEEB4EFA50194010E94532DC60EEC
:1059D000D71EE81EF91EF7FE06C081E0C81AD108DE
:1059E000E10880E8F80AC0920E01D0920F01E0921F
:1059F0001001F0921101C701B6019F77FF90EF905F
:105A0000DF90CF90BF90AF909F908F90089560935C
:105A10000E0170930F01809310019093110108956E
:105A2000F999FECF92BD81BDF89A992780B5089566
:105A3000262FF999FECF1FBA92BD81BD20BD0FB6AA
:105A4000F894FA9AF99A0FBE01960895052E97FBDD
:105A50001EF400940E943D2D57FD07D00E94582D42
:105A600007FC03D04EF40C943D2D50954095309595
:105A700021953F4F4F4F5F4F0895909580957095BA
:105A800061957F4F8F4F9F4F08950E947A2DA59F5C
:105A9000900DB49F900DA49F800D911D1124089529
:105AA000B7FF0C94452D0E94452D821B930B089542
:105AB000A1E21A2EAA1BBB1BFD010DC0AA1FBB1F12
:105AC000EE1FFF1FA217B307E407F50720F0A21B84
:105AD000B30BE40BF50B661F771F881F991F1A94F1
